:100000000C942A000C9447000C9447000C94470071
:100010000C9447000C9447000C9447000C94470044
:100020000C9447000C9447000C9416040C94EF03B6
:100030000C9473030C9447000C9447000C944700F5
:100040000C9460020C9447000C9447000C944700F9
:100050000C94470011241FBECFE5D8E0DEBFCDBF12
:1000600010E0A0E6B0E0EAE1FFE002C005900D92EA
:10007000A238B107D9F720E0A2E8B0E001C01D9294
:10008000A239B207E1F70E94E2010C948B070C94AD
:100090000000CF93DF93CDB7DEB760970FB6F8942B
:1000A000DEBF0FBECDBF41E060E081E00E9487026D
:1000B00041E061E081E00E94870241E063E081E08D
:1000C0000E94870240E060E081E00E94FD0241E082
:1000D00061E081E00E94FD0288E6898382E08A83F4
:1000E0001B821D821C82CE0101960E949D031E82EE
:1000F00081E08887198680E48F831A861C861B8698
:10010000CE0106960E94E7010E943E011D861E86D2
:100110001F86188A80E690E00E948B0160E070E004
:1001200082E090E00E94760187E690E00E948B01D9
:100130000AE066E070E081E090E00E94760140E035
:10014000BE01635F7F4F80E00E9412022D853E85D5
:100150004F855889A8E8B3E10E94730426EF37E27F
:1001600040E050E00E945104122FF22E822F90E0C6
:100170000E94B80183E40E9461018EE0811738F586
:1001800081EF810F8A3028F187EE810F8A3018F1D4
:100190008DED810F8A3008F183ED810F8A30F8F000
:1001A00089EC810F8A30E8F08FEB810F8A30D8F02C
:1001B00085EB810F8A30C8F08BEA810F8A30B8F066
:1001C0001F551530B0F083E68F15A8F015C000E07C
:1001D00013C00AE011C004E10FC00EE10DC008E237
:1001E0000BC002E309C00CE307C006E405C000E54C
:1001F00003C00AE501C004E6802F0E94D4036BE02F
:1002000070E082E090E00E947601802F90E00E94F2
:10021000B8018FCF82B3816082BB8FE99FE00197E5
:10022000F1F700C0000082B38E7F82BB089584B3D3
:1002300014BA82B3826082BB82B38B7F82BB0E947E
:100240000A0184B38FEF84BB82B38D7F82BB089594
:10025000CF93C82F0E941701C5BB82B3897F82BB91
:100260008FEC97E00197F1F700C000000E940A01AF
:10027000CF91089581E00E94280108958FE99FE0C1
:100280000197F1F700C0000081B3876081BB82B3A2
:10029000887F82BB8FEF84BB8FE99FE00197F1F7E6
:1002A00000C000000E943A0188E30E94280186E015
:1002B0000E94280180E80E9428018CE00E94280109
:1002C0000895CF93C82F0E941701C5BB82B38D7FBD
:1002D00082BB82B3846082BB8FEC97E00197F1F719
:1002E00000C000000E940A01CF910895813091055D
:1002F00041F46031710570F480E8860F0E94280196
:100300000895029739F46031710520F480EC860F6E
:100310000E94280108950F931F93CF93DF938C01C0
:10032000C0E0D0E01CC021960F5F1F4F0E9461010A
:10033000C031D10539F460E070E082E090E00E94C5
:1003400076010DC0C032D10554F00E943A0160E040
:1003500070E081E090E00E947601C0E0D0E0F8011A
:1003600080818111E0CFDF91CF911F910F9108958E
:100370000F931F93CF93DF9300D000D000D0CDB761
:10038000DEB79F938F9383E790E09F938F938E01C7
:100390000F5F1F4F1F930F930E94A104C8010E947B
:1003A0008B010F900F900F900F900F900F9026964B
:1003B0000FB6F894DEBF0FBECDBFDF91CF911F9176
:1003C0000F9108950E94490080E090E00895CF9336
:1003D000DF93EC0187E0FE01A6E8B0E001900D920A
:1003E0008A95E1F797B18981892B87B997B18B817C
:1003F000892B87B997B18A81892B87B996B18C816E
:10040000892B86B98C81883009F4789486B180680C
:1004100086B98881813019F486B1806486B9DF910C
:10042000CF91089597B19E7F97B997B19D7F97B966
:1004300097B19B7F97B997B1977F97B997B19F7EF7
:1004400097B997B1982B97B95AB321E030E0F901E9
:1004500002C0EE0FFF1F8A95E2F7CF01809585233A
:100460008ABB80918600811103C086B1806486B901
:10047000411102C0349BFECF8091890081110BC0D5
:1004800024B185B1837090E0982F8827822BFB01DF
:100490009183808311C0803279F424B1229526950E
:1004A0002695237085B190E0880F991F880F991FBA
:1004B000822BFB019183808386B18F7E86B908955C
:1004C0001F920F920FB60F9211242F933F934F93C9
:1004D0005F936F937F938F939F93AF93BF93EF93AC
:1004E000FF93E0918B00F0918C000995FF91EF91C3
:1004F000BF91AF919F918F917F916F915F914F913C
:100500003F912F910F900FBE0F901F901895843040
:1005100008F072C0683008F06FC04130A1F581303A
:1005200089F028F08230C9F0833011F108952AB3A0
:1005300081E090E002C0880F991F6A95E2F7822B54
:100540008ABB089527B381E090E002C0880F991F0D
:100550006A95E2F7822B87BB089524B381E090E08F
:1005600002C0880F991F6A95E2F7822B84BB089519
:1005700021B381E090E002C0880F991F6A95E2F7ED
:10058000822B81BB0895411137C0813091F028F052
:100590008230D9F0833029F108952AB381E090E0C8
:1005A00002C0880F991F6A95E2F7809582238ABB63
:1005B000089527B381E090E002C0880F991F6A95E3
:1005C000E2F78095822387BB089524B381E090E011
:1005D00002C0880F991F6A95E2F78095822384BB39
:1005E000089521B381E090E002C0880F991F6A95B9
:1005F000E2F78095822381BB0895843008F072C0B1
:10060000683008F06FC04130A1F5813089F028F0E2
:100610008230C9F0833011F108952BB381E090E06E
:1006200002C0880F991F6A95E2F7822B8BBB089551
:1006300028B381E090E002C0880F991F6A95E2F725
:10064000822B88BB089525B381E090E002C0880F1B
:10065000991F6A95E2F7822B85BB089522B381E04A
:1006600090E002C0880F991F6A95E2F7822B82BB47
:100670000895411137C0813091F028F08230D9F0CF
:10068000833029F108952BB381E090E002C0880FF8
:10069000991F6A95E2F7809582238BBB089528B352
:1006A00081E090E002C0880F991F6A95E2F780957B
:1006B000822388BB089525B381E090E002C0880FB3
:1006C000991F6A95E2F78095822385BB089522B32E
:1006D00081E090E002C0880F991F6A95E2F780954B
:1006E000822382BB08951F920F920FB60F9211249E
:1006F0002F933F934F935F936F937F938F939F932A
:10070000AF93BF93EF93FF93E0918200F09183004A
:100710000780F085E02D0995FF91EF91BF91AF9192
:100720009F918F917F916F915F914F913F912F9109
:100730000F900FBE0F901F901895CF93DF93EC0191
:1007400085E0FE01ADE8B0E001900D928A95E1F7F9
:1007500093B78881892B83BF8881883711F08836C9
:1007600029F441E063E081E00E94870293B7898128
:10077000892B83BF89818650823028F440E060E075
:1007800081E00E94870299B78A81892B89BF8A817B
:10079000882309F078948B819C81909385008093C5
:1007A0008400DF91CF91089590918D00983651F497
:1007B0002FEF829FC001112464E670E00E943D0487
:1007C0006CBF0895983751F42FEF829FC001112418
:1007D00064E670E00E943D0460956CBF08951F922E
:1007E0000F920FB60F9211242F933F934F935F9365
:1007F0006F937F938F939F93AF93BF93EF93FF93E9
:10080000E0918400F09185000995FF91EF91BF91EF
:10081000AF919F918F917F916F915F914F913F9198
:100820002F910F900FBE0F901F9018951F920F924F
:100830000FB60F9211242F933F934F935F936F93B3
:100840007F938F939F93AF93BF93EF93FF93E09129
:100850008400F09185000995FF91EF91BF91AF91D0
:100860009F918F917F916F915F914F913F912F91C8
:100870000F900FBE0F901F90189597FB072E16F440
:10088000009407D077FD09D00E947E0407FC05D0B4
:100890003EF4909581959F4F0895709561957F4F97
:1008A0000895A1E21A2EAA1BBB1BFD010DC0AA1FB1
:1008B000BB1FEE1FFF1FA217B307E407F50720F0C9
:1008C000A21BB30BE40BF50B661F771F881F991F44
:1008D0001A9469F760957095809590959B01AC018D
:1008E000BD01CF0108950E949204A59F900DB49F71
:1008F000900DA49F800D911D11240895AA1BBB1B70
:1009000051E107C0AA1FBB1FA617B70710F0A61B0F
:10091000B70B881F991F5A95A9F780959095BC0130
:10092000CD010895A29FB001B39FC001A39F700D98
:10093000811D1124911DB29F700D811D1124911DE7
:100940000895AEE0B0E0E7EAF4E00C9462070D89A8
:100950001E8986E08C831A8309838FEF9FE79E832D
:100960008D83AE01475E5F4F6F89788DCE01019612
:100970000E94C304EF81F885E00FF11F10822E96CC
:10098000E4E00C947E07ABE0B0E0E9ECF4E00C941A
:1009900054076C017B018A01FC0117821682838156
:1009A00081FFCCC1CE0101963C01F6019381F70194
:1009B00093FD859193FF81917F01882309F4BAC14A
:1009C000853239F493FD859193FF81917F018532C2
:1009D00029F4B60190E00E94BA06E7CF912C212CB1
:1009E000312CFFE1F315D8F08B3279F038F48032F6
:1009F00079F08332A1F4232D20611DC08D3261F086
:100A0000803369F4232D216016C0832D8260382E37
:100A1000E32DE4603E2E2AC0F32DF8601DC037FCA4
:100A20002DC020ED280F2A3040F08E32B9F436FC6C
:100A300081C1232D2064322E19C036FE06C08AE003
:100A4000989E200D1124922E11C0EAE02E9E200DBA
:100A50001124222EF32DF0623F2E08C08C3621F493
:100A6000832D8068382E02C0883641F4F70193FD4B
:100A7000859193FF81917F018111B3CF982F9F7D45
:100A80009554933028F40C5F1F4F9FE399830DC05A
:100A9000833631F0833771F0833509F059C021C0B6
:100AA000F801808189830E5F1F4F88248394912CE5
:100AB000530113C02801F2E04F0E511CF801A08031
:100AC000B18036FE03C0692D70E002C06FEF7FEF8A
:100AD000C5010E94AF064C018201F32DFF773F2E26
:100AE00016C0280122E0420E511CF801A080B180FE
:100AF00036FE03C0692D70E002C06FEF7FEFC501C5
:100B00000E94A4064C01F32DF0683F2E820133FCB5
:100B10001BC0822D90E088169906B0F4B60180E2E1
:100B200090E00E94BA062A94F4CFF50137FC859133
:100B300037FE81915F01B60190E00E94BA06211054
:100B40002A9421E0821A91088114910471F7E8C077
:100B5000843611F0893641F5F80137FE07C060810F
:100B60007181828193810C5F1F4F08C06081718108
:100B7000072E000C880B990B0E5F1F4FF32DFF768D
:100B80003F2E97FF09C090958095709561957F4F96
:100B90008F4F9F4FF0683F2E2AE030E0A3010E9464
:100BA000F606882E861845C0853731F4232D2F7E12
:100BB000B22E2AE030E025C0932D997FB92E8F36D2
:100BC000C1F018F4883579F0B5C0803719F088374E
:100BD00021F0B0C0E92FE061BE2EB4FE0DC0FB2DA8
:100BE000F460BF2E09C034FE0AC0292F2660B22E41
:100BF00006C028E030E005C020E130E002C020E17E
:100C000032E0F801B7FE07C0608171818281938173
:100C10000C5F1F4F06C06081718180E090E00E5F25
:100C20001F4FA3010E94F606882E8618FB2DFF7722
:100C30003F2E36FE0DC0232D2E7FA22E891458F490
:100C400034FE0BC032FC09C0832D8E7EA82E05C059
:100C5000B82CA32C03C0B82C01C0B92CA4FE0FC023
:100C6000FE01E80DF11D8081803321F49A2D997EDB
:100C7000A92E09C0A2FE06C0B394B39404C08A2D65
:100C8000867809F0B394A3FC11C0A0FE06C0B2148C
:100C900088F4280C922C9B180EC0B21460F4B60194
:100CA00080E290E00E94BA06B394F7CFB21418F431
:100CB0002B1802C0982C212CA4FE10C0B60180E392
:100CC00090E00E94BA06A2FE17C0A1FC03C088E70C
:100CD00090E002C088E590E0B6010CC08A2D8678CD
:100CE00059F0A1FE02C08BE201C080E2A7FC8DE2B8
:100CF000B60190E00E94BA06891438F4B60180E388
:100D000090E00E94BA069A94F7CF8A94F301E80D16
:100D1000F11D8081B60190E00E94BA068110F5CFE6
:100D2000222009F442CEB60180E290E00E94BA0689
:100D30002A94F6CFF6018681978102C08FEF9FEF4C
:100D40002B96E2E10C947007FC0105906150704015
:100D50000110D8F7809590958E0F9F1F0895FC0184
:100D60006150704001900110D8F7809590958E0FDA
:100D70009F1F08950F931F93CF93DF93FB01238150
:100D800021FD03C08FEF9FEF2CC022FF16C04681CC
:100D90005781248135814217530744F4A081B181E2
:100DA0009D012F5F3F4F318320838C9326813781B4
:100DB0002F5F3F4F3783268314C08B01EC01FB016B
:100DC0000084F185E02D0995892BE1F6D80116966E
:100DD0008D919C911797019617969C938E931697D9
:100DE000CE01DF91CF911F910F910895FA01AA27AB
:100DF000283051F1203181F1E8946F936E7F6E5F5E
:100E00007F4F8F4F9F4FAF4FB1E03ED0B4E03CD00B
:100E1000670F781F891F9A1FA11D680F791F8A1FEE
:100E2000911DA11D6A0F711D811D911DA11D20D055
:100E300009F468943F912AE0269F11243019305D0F
:100E40003193DEF6CF010895462F4770405D419300
:100E5000B3E00FD0C9F7F6CF462F4F70405D4A334D
:100E600018F0495D31FD4052419302D0A9F7EACF15
:100E7000B4E0A6959795879577956795BA95C9F744
:100E800000976105710508959B01AC010A2E069437
:100E90005795479537952795BA95C9F7620F731FF0
:100EA000841F951FA01D08952F923F924F925F922D
:100EB0006F927F928F929F92AF92BF92CF92DF926A
:100EC000EF92FF920F931F93CF93DF93CDB7DEB7CF
:100ED000CA1BDB0B0FB6F894DEBF0FBECDBF099463
:100EE0002A88398848885F846E847D848C849B84BA
:100EF000AA84B984C884DF80EE80FD800C811B81C8
:100F0000AA81B981CE0FD11D0FB6F894DEBF0FBEF6
:0A0F1000CDBFED010895F894FFCF66
:100F1A0074656D703A200066616E20737065656451
:100F2A003A20002564002D00247325642E253034D0
:020F3A00640051
:00000001FF
